{
  "_format": "hh-sol-artifact-1",
  "contractName": "NFT",
  "sourceName": "contracts/NFT.sol",
  "abi": [
    {
      "inputs": [
        {
          "internalType": "address",
          "name": "marketplaceAddress",
          "type": "address"
        }
      ],
      "stateMutability": "nonpayable",
      "type": "constructor"
    },
    {
      "anonymous": false,
      "inputs": [
        {
          "indexed": true,
          "internalType": "address",
          "name": "owner",
          "type": "address"
        },
        {
          "indexed": true,
          "internalType": "address",
          "name": "approved",
          "type": "address"
        },
        {
          "indexed": true,
          "internalType": "uint256",
          "name": "tokenId",
          "type": "uint256"
        }
      ],
      "name": "Approval",
      "type": "event"
    },
    {
      "anonymous": false,
      "inputs": [
        {
          "indexed": true,
          "internalType": "address",
          "name": "owner",
          "type": "address"
        },
        {
          "indexed": true,
          "internalType": "address",
          "name": "operator",
          "type": "address"
        },
        {
          "indexed": false,
          "internalType": "bool",
          "name": "approved",
          "type": "bool"
        }
      ],
      "name": "ApprovalForAll",
      "type": "event"
    },
    {
      "anonymous": false,
      "inputs": [
        {
          "indexed": true,
          "internalType": "address",
          "name": "from",
          "type": "address"
        },
        {
          "indexed": true,
          "internalType": "address",
          "name": "to",
          "type": "address"
        },
        {
          "indexed": true,
          "internalType": "uint256",
          "name": "tokenId",
          "type": "uint256"
        }
      ],
      "name": "Transfer",
      "type": "event"
    },
    {
      "inputs": [
        {
          "internalType": "address",
          "name": "to",
          "type": "address"
        },
        {
          "internalType": "uint256",
          "name": "tokenId",
          "type": "uint256"
        }
      ],
      "name": "approve",
      "outputs": [],
      "stateMutability": "nonpayable",
      "type": "function"
    },
    {
      "inputs": [
        {
          "internalType": "address",
          "name": "owner",
          "type": "address"
        }
      ],
      "name": "balanceOf",
      "outputs": [
        {
          "internalType": "uint256",
          "name": "",
          "type": "uint256"
        }
      ],
      "stateMutability": "view",
      "type": "function"
    },
    {
      "inputs": [
        {
          "internalType": "string",
          "name": "tokenURI",
          "type": "string"
        }
      ],
      "name": "createToken",
      "outputs": [
        {
          "internalType": "uint256",
          "name": "",
          "type": "uint256"
        }
      ],
      "stateMutability": "nonpayable",
      "type": "function"
    },
    {
      "inputs": [
        {
          "internalType": "uint256",
          "name": "tokenId",
          "type": "uint256"
        }
      ],
      "name": "getApproved",
      "outputs": [
        {
          "internalType": "address",
          "name": "",
          "type": "address"
        }
      ],
      "stateMutability": "view",
      "type": "function"
    },
    {
      "inputs": [
        {
          "internalType": "address",
          "name": "owner",
          "type": "address"
        },
        {
          "internalType": "address",
          "name": "operator",
          "type": "address"
        }
      ],
      "name": "isApprovedForAll",
      "outputs": [
        {
          "internalType": "bool",
          "name": "",
          "type": "bool"
        }
      ],
      "stateMutability": "view",
      "type": "function"
    },
    {
      "inputs": [
        {
          "internalType": "bool",
          "name": "value",
          "type": "bool"
        },
        {
          "internalType": "uint256",
          "name": "tokenId",
          "type": "uint256"
        }
      ],
      "name": "modifyRental",
      "outputs": [],
      "stateMutability": "nonpayable",
      "type": "function"
    },
    {
      "inputs": [],
      "name": "name",
      "outputs": [
        {
          "internalType": "string",
          "name": "",
          "type": "string"
        }
      ],
      "stateMutability": "view",
      "type": "function"
    },
    {
      "inputs": [
        {
          "internalType": "uint256",
          "name": "tokenId",
          "type": "uint256"
        }
      ],
      "name": "ownerOf",
      "outputs": [
        {
          "internalType": "address",
          "name": "",
          "type": "address"
        }
      ],
      "stateMutability": "view",
      "type": "function"
    },
    {
      "inputs": [
        {
          "internalType": "address",
          "name": "from",
          "type": "address"
        },
        {
          "internalType": "address",
          "name": "to",
          "type": "address"
        },
        {
          "internalType": "uint256",
          "name": "tokenId",
          "type": "uint256"
        }
      ],
      "name": "performTokenTransfer",
      "outputs": [],
      "stateMutability": "nonpayable",
      "type": "function"
    },
    {
      "inputs": [
        {
          "internalType": "uint256",
          "name": "",
          "type": "uint256"
        }
      ],
      "name": "rental",
      "outputs": [
        {
          "internalType": "bool",
          "name": "",
          "type": "bool"
        }
      ],
      "stateMutability": "view",
      "type": "function"
    },
    {
      "inputs": [
        {
          "internalType": "address",
          "name": "from",
          "type": "address"
        },
        {
          "internalType": "address",
          "name": "to",
          "type": "address"
        },
        {
          "internalType": "uint256",
          "name": "tokenId",
          "type": "uint256"
        }
      ],
      "name": "safeTransferFrom",
      "outputs": [],
      "stateMutability": "nonpayable",
      "type": "function"
    },
    {
      "inputs": [
        {
          "internalType": "address",
          "name": "from",
          "type": "address"
        },
        {
          "internalType": "address",
          "name": "to",
          "type": "address"
        },
        {
          "internalType": "uint256",
          "name": "tokenId",
          "type": "uint256"
        },
        {
          "internalType": "bytes",
          "name": "data",
          "type": "bytes"
        }
      ],
      "name": "safeTransferFrom",
      "outputs": [],
      "stateMutability": "nonpayable",
      "type": "function"
    },
    {
      "inputs": [
        {
          "internalType": "address",
          "name": "operator",
          "type": "address"
        },
        {
          "internalType": "bool",
          "name": "approved",
          "type": "bool"
        }
      ],
      "name": "setApprovalForAll",
      "outputs": [],
      "stateMutability": "nonpayable",
      "type": "function"
    },
    {
      "inputs": [
        {
          "internalType": "bytes4",
          "name": "interfaceId",
          "type": "bytes4"
        }
      ],
      "name": "supportsInterface",
      "outputs": [
        {
          "internalType": "bool",
          "name": "",
          "type": "bool"
        }
      ],
      "stateMutability": "view",
      "type": "function"
    },
    {
      "inputs": [],
      "name": "symbol",
      "outputs": [
        {
          "internalType": "string",
          "name": "",
          "type": "string"
        }
      ],
      "stateMutability": "view",
      "type": "function"
    },
    {
      "inputs": [
        {
          "internalType": "uint256",
          "name": "tokenId",
          "type": "uint256"
        }
      ],
      "name": "tokenURI",
      "outputs": [
        {
          "internalType": "string",
          "name": "",
          "type": "string"
        }
      ],
      "stateMutability": "view",
      "type": "function"
    },
    {
      "inputs": [
        {
          "internalType": "address",
          "name": "from",
          "type": "address"
        },
        {
          "internalType": "address",
          "name": "to",
          "type": "address"
        },
        {
          "internalType": "uint256",
          "name": "tokenId",
          "type": "uint256"
        }
      ],
      "name": "transferFrom",
      "outputs": [],
      "stateMutability": "nonpayable",
      "type": "function"
    }
  ],
  "bytecode": "0x60806040523480156200001157600080fd5b506040516200195138038062001951833981016040819052620000349162000168565b604080518082018252600b81526a14995b9d18589b1953919560aa1b60208083019182528351808501909452600384526214919560ea1b9084015281519192916200008291600091620000c2565b50805162000098906001906020840190620000c2565b5050600880546001600160a01b0319166001600160a01b03939093169290921790915550620001d5565b828054620000d09062000198565b90600052602060002090601f016020900481019282620000f457600085556200013f565b82601f106200010f57805160ff19168380011785556200013f565b828001600101855582156200013f579182015b828111156200013f57825182559160200191906001019062000122565b506200014d92915062000151565b5090565b5b808211156200014d576000815560010162000152565b6000602082840312156200017a578081fd5b81516001600160a01b038116811462000191578182fd5b9392505050565b600181811c90821680620001ad57607f821691505b60208210811415620001cf57634e487b7160e01b600052602260045260246000fd5b50919050565b61176c80620001e56000396000f3fe608060405234801561001057600080fd5b506004361061010b5760003560e01c80636352211e116100a2578063a22cb46511610071578063a22cb46514610238578063a2932c531461024b578063b88d4fde1461025e578063c87b56dd14610271578063e985e9c51461028457600080fd5b80636352211e146101e757806365c13850146101fa57806370a082311461021d57806395d89b411461023057600080fd5b806323b872dd116100de57806323b872dd1461018d57806332b95aa9146101a057806342842e0e146101b357806345576f94146101c657600080fd5b806301ffc9a71461011057806306fdde0314610138578063081812fc1461014d578063095ea7b314610178575b600080fd5b61012361011e366004611424565b6102c0565b60405190151581526020015b60405180910390f35b610140610312565b60405161012f9190611552565b61016061015b3660046114a2565b6103a4565b6040516001600160a01b03909116815260200161012f565b61018b6101863660046113e0565b6103cb565b005b61018b61019b366004611303565b6104e6565b61018b6101ae366004611409565b610517565b61018b6101c1366004611303565b610590565b6101d96101d436600461145c565b6105ab565b60405190815260200161012f565b6101606101f53660046114a2565b6105f2565b6101236102083660046114a2565b60096020526000908152604090205460ff1681565b6101d961022b3660046112b7565b610652565b6101406106d8565b61018b6102463660046113b7565b6106e7565b61018b610259366004611303565b6106f6565b61018b61026c36600461133e565b610750565b61014061027f3660046114a2565b610788565b6101236102923660046112d1565b6001600160a01b03918216600090815260056020908152604080832093909416825291909152205460ff1690565b60006001600160e01b031982166380ac58cd60e01b14806102f157506001600160e01b03198216635b5e139f60e01b145b8061030c57506301ffc9a760e01b6001600160e01b03198316145b92915050565b60606000805461032190611674565b80601f016020809104026020016040519081016040528092919081815260200182805461034d90611674565b801561039a5780601f1061036f5761010080835404028352916020019161039a565b820191906000526020600020905b81548152906001019060200180831161037d57829003601f168201915b5050505050905090565b60006103af82610899565b506000908152600460205260409020546001600160a01b031690565b60006103d6826105f2565b9050806001600160a01b0316836001600160a01b031614156104495760405162461bcd60e51b815260206004820152602160248201527f4552433732313a20617070726f76616c20746f2063757272656e74206f776e656044820152603960f91b60648201526084015b60405180910390fd5b336001600160a01b038216148061046557506104658133610292565b6104d75760405162461bcd60e51b815260206004820152603e60248201527f4552433732313a20617070726f76652063616c6c6572206973206e6f7420746f60448201527f6b656e206f776e6572206e6f7220617070726f76656420666f7220616c6c00006064820152608401610440565b6104e183836108fb565b505050565b6104f03382610969565b61050c5760405162461bcd60e51b8152600401610440906115b7565b6104e18383836109e7565b6008546001600160a01b031633146105715760405162461bcd60e51b815260206004820152601e60248201527f43616c6c6572206d75737420626520636f6e74726163744164647265737300006044820152606401610440565b6000908152600960205260409020805460ff1916911515919091179055565b6104e183838360405180602001604052806000815250610750565b60006105bb600780546001019055565b60006105c660075490565b90506105d23382610b8e565b6105dc8184610cdc565b60085461030c906001600160a01b0316826103cb565b6000818152600260205260408120546001600160a01b03168061030c5760405162461bcd60e51b8152602060048201526018602482015277115490cdcc8c4e881a5b9d985b1a59081d1bdad95b88125160421b6044820152606401610440565b60006001600160a01b0382166106bc5760405162461bcd60e51b815260206004820152602960248201527f4552433732313a2061646472657373207a65726f206973206e6f7420612076616044820152683634b21037bbb732b960b91b6064820152608401610440565b506001600160a01b031660009081526003602052604090205490565b60606001805461032190611674565b6106f2338383610d76565b5050565b6008546001600160a01b0316331461050c5760405162461bcd60e51b815260206004820152601e60248201527f43616c6c6572206d75737420626520636f6e74726163744164647265737300006044820152606401610440565b61075a3383610969565b6107765760405162461bcd60e51b8152600401610440906115b7565b61078284848484610e45565b50505050565b606061079382610899565b600082815260066020526040812080546107ac90611674565b80601f01602080910402602001604051908101604052809291908181526020018280546107d890611674565b80156108255780601f106107fa57610100808354040283529160200191610825565b820191906000526020600020905b81548152906001019060200180831161080857829003601f168201915b50505050509050600061084360408051602081019091526000815290565b9050805160001415610856575092915050565b8151156108885780826040516020016108709291906114e6565b60405160208183030381529060405292505050919050565b61089184610e78565b949350505050565b6000818152600260205260409020546001600160a01b03166108f85760405162461bcd60e51b8152602060048201526018602482015277115490cdcc8c4e881a5b9d985b1a59081d1bdad95b88125160421b6044820152606401610440565b50565b600081815260046020526040902080546001600160a01b0319166001600160a01b0384169081179091558190610930826105f2565b6001600160a01b03167f8c5be1e5ebec7d5bd14f71427d1e84f3dd0314c0f7b2291e5b200ac8c7c3b92560405160405180910390a45050565b600080610975836105f2565b9050806001600160a01b0316846001600160a01b031614806109bc57506001600160a01b0380821660009081526005602090815260408083209388168352929052205460ff165b806108915750836001600160a01b03166109d5846103a4565b6001600160a01b031614949350505050565b826001600160a01b03166109fa826105f2565b6001600160a01b031614610a5e5760405162461bcd60e51b815260206004820152602560248201527f4552433732313a207472616e736665722066726f6d20696e636f72726563742060448201526437bbb732b960d91b6064820152608401610440565b6001600160a01b038216610ac05760405162461bcd60e51b8152602060048201526024808201527f4552433732313a207472616e7366657220746f20746865207a65726f206164646044820152637265737360e01b6064820152608401610440565b610acb838383610eec565b610ad66000826108fb565b6001600160a01b0383166000908152600360205260408120805460019290610aff908490611631565b90915550506001600160a01b0382166000908152600360205260408120805460019290610b2d908490611605565b909155505060008181526002602052604080822080546001600160a01b0319166001600160a01b0386811691821790925591518493918716917fddf252ad1be2c89b69c2b068fc378daa952ba7f163c4a11628f55a4df523b3ef91a4505050565b6001600160a01b038216610be45760405162461bcd60e51b815260206004820181905260248201527f4552433732313a206d696e7420746f20746865207a65726f20616464726573736044820152606401610440565b6000818152600260205260409020546001600160a01b031615610c495760405162461bcd60e51b815260206004820152601c60248201527f4552433732313a20746f6b656e20616c7265616479206d696e746564000000006044820152606401610440565b610c5560008383610eec565b6001600160a01b0382166000908152600360205260408120805460019290610c7e908490611605565b909155505060008181526002602052604080822080546001600160a01b0319166001600160a01b03861690811790915590518392907fddf252ad1be2c89b69c2b068fc378daa952ba7f163c4a11628f55a4df523b3ef908290a45050565b6000828152600260205260409020546001600160a01b0316610d575760405162461bcd60e51b815260206004820152602e60248201527f45524337323155524953746f726167653a2055524920736574206f66206e6f6e60448201526d32bc34b9ba32b73a103a37b5b2b760911b6064820152608401610440565b600082815260066020908152604090912082516104e19284019061117c565b816001600160a01b0316836001600160a01b03161415610dd85760405162461bcd60e51b815260206004820152601960248201527f4552433732313a20617070726f766520746f2063616c6c6572000000000000006044820152606401610440565b6001600160a01b03838116600081815260056020908152604080832094871680845294825291829020805460ff191686151590811790915591519182527f17307eab39ab6107e8899845ad3d59bd9653f200f220920489ca2b5937696c31910160405180910390a3505050565b610e508484846109e7565b610e5c84848484610f55565b6107825760405162461bcd60e51b815260040161044090611565565b6060610e8382610899565b6000610e9a60408051602081019091526000815290565b90506000815111610eba5760405180602001604052806000815250610ee5565b80610ec484611062565b604051602001610ed59291906114e6565b6040516020818303038152906040525b9392505050565b60008181526009602052604090205460ff16156104e15760405162461bcd60e51b815260206004820152602160248201527f52656e7461626c654e46543a207468697320746f6b656e2069732072656e74656044820152601960fa1b6064820152608401610440565b60006001600160a01b0384163b1561105757604051630a85bd0160e11b81526001600160a01b0385169063150b7a0290610f99903390899088908890600401611515565b602060405180830381600087803b158015610fb357600080fd5b505af1925050508015610fe3575060408051601f3d908101601f19168201909252610fe091810190611440565b60015b61103d573d808015611011576040519150601f19603f3d011682016040523d82523d6000602084013e611016565b606091505b5080516110355760405162461bcd60e51b815260040161044090611565565b805181602001fd5b6001600160e01b031916630a85bd0160e11b149050610891565b506001949350505050565b6060816110865750506040805180820190915260018152600360fc1b602082015290565b8160005b81156110b0578061109a816116af565b91506110a99050600a8361161d565b915061108a565b60008167ffffffffffffffff8111156110d957634e487b7160e01b600052604160045260246000fd5b6040519080825280601f01601f191660200182016040528015611103576020820181803683370190505b5090505b841561089157611118600183611631565b9150611125600a866116ca565b611130906030611605565b60f81b81838151811061115357634e487b7160e01b600052603260045260246000fd5b60200101906001600160f81b031916908160001a905350611175600a8661161d565b9450611107565b82805461118890611674565b90600052602060002090601f0160209004810192826111aa57600085556111f0565b82601f106111c357805160ff19168380011785556111f0565b828001600101855582156111f0579182015b828111156111f05782518255916020019190600101906111d5565b506111fc929150611200565b5090565b5b808211156111fc5760008155600101611201565b600067ffffffffffffffff808411156112305761123061170a565b604051601f8501601f19908116603f011681019082821181831017156112585761125861170a565b8160405280935085815286868601111561127157600080fd5b858560208301376000602087830101525050509392505050565b80356001600160a01b03811681146112a257600080fd5b919050565b803580151581146112a257600080fd5b6000602082840312156112c8578081fd5b610ee58261128b565b600080604083850312156112e3578081fd5b6112ec8361128b565b91506112fa6020840161128b565b90509250929050565b600080600060608486031215611317578081fd5b6113208461128b565b925061132e6020850161128b565b9150604084013590509250925092565b60008060008060808587031215611353578081fd5b61135c8561128b565b935061136a6020860161128b565b925060408501359150606085013567ffffffffffffffff81111561138c578182fd5b8501601f8101871361139c578182fd5b6113ab87823560208401611215565b91505092959194509250565b600080604083850312156113c9578182fd5b6113d28361128b565b91506112fa602084016112a7565b600080604083850312156113f2578182fd5b6113fb8361128b565b946020939093013593505050565b6000806040838503121561141b578182fd5b6113fb836112a7565b600060208284031215611435578081fd5b8135610ee581611720565b600060208284031215611451578081fd5b8151610ee581611720565b60006020828403121561146d578081fd5b813567ffffffffffffffff811115611483578182fd5b8201601f81018413611493578182fd5b61089184823560208401611215565b6000602082840312156114b3578081fd5b5035919050565b600081518084526114d2816020860160208601611648565b601f01601f19169290920160200192915050565b600083516114f8818460208801611648565b83519083019061150c818360208801611648565b01949350505050565b6001600160a01b0385811682528416602082015260408101839052608060608201819052600090611548908301846114ba565b9695505050505050565b602081526000610ee560208301846114ba565b60208082526032908201527f4552433732313a207472616e7366657220746f206e6f6e20455243373231526560408201527131b2b4bb32b91034b6b83632b6b2b73a32b960711b606082015260800190565b6020808252602e908201527f4552433732313a2063616c6c6572206973206e6f7420746f6b656e206f776e6560408201526d1c881b9bdc88185c1c1c9bdd995960921b606082015260800190565b60008219821115611618576116186116de565b500190565b60008261162c5761162c6116f4565b500490565b600082821015611643576116436116de565b500390565b60005b8381101561166357818101518382015260200161164b565b838111156107825750506000910152565b600181811c9082168061168857607f821691505b602082108114156116a957634e487b7160e01b600052602260045260246000fd5b50919050565b60006000198214156116c3576116c36116de565b5060010190565b6000826116d9576116d96116f4565b500690565b634e487b7160e01b600052601160045260246000fd5b634e487b7160e01b600052601260045260246000fd5b634e487b7160e01b600052604160045260246000fd5b6001600160e01b0319811681146108f857600080fdfea26469706673582212200a6c77a19f5ccec02a9c2e26d99ac05f2d433d57677b02b04614ca7d0692430e64736f6c63430008040033",
  "linkReferences": {},
  "deployedLinkReferences": {}
}